:020000040800F2
:1000000090070020CD010008D5010008D7010008A5
:10001000D9010008DB010008DD0100080000000034
:10002000000000000000000000000000DF010008E8
:10003000E101000800000000E3010008E5010008FC
:10004000E7010008E7010008E7010008E7010008F0
:10005000E7010008E7010008E7010008E7010008E0
:10006000E7010008E7010008E7010008B102000805
:10007000D1020008F1020008110300083103000852
:100080005103000871030008E7010008E7010008B8
:10009000E7010008E7010008E7010008E7010008A0
:1000A000E7010008E7010008E7010008E701000890
:1000B0009D380008E7010008E7010008E701000893
:1000C000E7010008E7010008E7010008E701000870
:1000D000E7010008D53C0008E7010008E701000837
:1000E000E7010008E7010008E7010008E701000850
:1000F000E7010008E7010008E7010008E701000840
:10010000E7010008E7010008E7010008E70100082F
:10011000E7010008E7010008E7010008E70100081F
:1001200091030008B1030008D5030008F503000897
:1001300000F002F800F03AF80AA090E8000C8244BF
:100140008344AAF10107DA4501D100F02FF8AFF29C
:10015000090EBAE80F0013F0010F18BFFB1A43F0A5
:10016000010318478C4C0000AC4C0000103A24BF2F
:1001700078C878C1FAD8520724BF30C830C144BF0C
:1001800004680C607047000000230024002500264E
:10019000103A28BF78C1FBD8520728BF30C148BFEA
:1001A0000B6070471FB51FBD10B510BD00F033F8D0
:1001B0001146FFF7F7FF03F02FFF00F051F803B4EB
:1001C000FFF7F2FF03BC03F0B6FE000009488047CA
:1001D00009480047FEE7FEE7FEE7FEE7FEE7FEE729
:1001E000FEE7FEE7FEE7FEE704480549054A064B41
:1001F00070470000FD370008310100089001002021
:100200009007002090030020900300207047704763
:10021000704770477047754600F02CF8AE460500F1
:100220006946534620F00700854618B020B5FFF711
:10023000DBFFBDE820404FF000064FF000074FF015
:1002400000084FF0000B21F00701AC46ACE8C009F4
:10025000ACE8C009ACE8C009ACE8C0098D467047FD
:1002600010B50446AFF300802046BDE81040FFF70C
:10027000A6BF0000004870473001002000B50120F3
:100280000549086000F00CF800200449C1F8A801F5
:1002900000F006F800BD0000A88121420080214244
:1002A000002001E0411CC8B22828FBDB70477047E2
:1002B00010B50548006800F00F040348446020466C
:1002C000FFF7F5FF10BD000000000240704700007E
:1002D00010B505480068C0F30314200102494860C6
:1002E0002046FFF7F3FF10BD0000024070470000FA
:1002F00010B505480068C0F3032420020249486095
:100300002046FFF7F3FF10BD0000024070470000D9
:1003100010B505480068C0F3033420030249486063
:100320002046FFF7F3FF10BD0000024070470000B9
:1003300010B505480068C0F3034420040249486032
:100340002046FFF7F3FF10BD000002407047000099
:1003500010B505480068C0F3035420050249486001
:100360002046FFF7F3FF10BD000002407047000079
:1003700010B505480068C0F30364200602494860D0
:100380002046FFF7F3FF10BD000002407047000059
:1003900010B50548006800F00F040348001D046014
:1003A0002046FFF7F3FF10BD000402407047000035
:1003B00010B506480068C0F3031420010349091D65
:1003C00008602046FFF7F2FF10BD00000004024065
:1003D0007047000010B506480068C0F303242002EF
:1003E0000349091D08602046FFF7F2FF10BD000019
:1003F0000004024010B50C480068C0F3033434B167
:1004000020030949091D0860204600F00FF806483E
:100410000068C0F3034434B120040349091D086097
:10042000204600F004F810BD0004024070477047F9
:1004300008B501214FF4907002F048FC4FF40040E1
:10044000ADF8000010208DF8030003208DF80200A5
:100450006946094800F011F94FF4FE70ADF800004C
:1004600010208DF8030003208DF802006946034830
:1004700000F003F908BD0000001401400020014015
:1004800010B540F2D641082003F035FD40F2D641C8
:10049000092003F030FD40F2D6410A2003F02BFD85
:1004A00040F2D6410B2003F026FD4FF470610C2082
:1004B00003F021FD4FF470610D2003F01CFD4FF49B
:1004C00070610E2003F017FD4FF470610F2003F0F0
:1004D00012FD0A21102003F00EFD0A21112003F065
:1004E0000AFD0A21122003F006FD0A21132003F061
:1004F00002FD42F20201142003F0FDFC42F202016F
:10050000152003F0F8FC42F20201162003F0F3FC80
:1005100042F20201172003F0EEFC0021192003F043
:10052000EAFC4CF20D211B2003F0E5FC4FF41041D6
:100530001E2003F0E0FC4FF410411F2003F0DBFC11
:100540004FF41041202003F0D6FC4FF4104121203D
:1005500003F0D1FC41F681411A2003F0CCFC10BD20
:1005600051B18200A2F1C042126842F00103820040
:10057000A2F1C042136009E08200A2F1C0421268F9
:10058000034B1A408300A3F1C0431A607047000078
:10059000FEFF0F00D0E901121143C2681143026946
:1005A00011434269114382691143C2691143026ACE
:1005B0001143426A1143826A1143C26A1143026BBA
:1005C000114302689200A2F1C042116081680829BB
:1005D0000BD101688900A1F1C041096841F04002D6
:1005E00001688900A1F1C0410A60416B0968426B52
:1005F000526841EA0211426B926841EA0221426B61
:10060000928941EA0241426B128A41EA0251426BED
:10061000127D41EA0261426B926911430268521CE9
:100620009200A2F1C0421160C16AB1F5804F1BD1A6
:10063000816B0968826B526841EA0211826B926891
:1006400041EA0221826B128A41EA0251826B127DD9
:1006500041EA0261826B9269114302689200A2F141
:10066000C042C2F8041107E06FF0704201688900CF
:10067000A1F1C041C1F8042170472DE9F0410246C3
:1006800000250026002000230024002791F803C045
:100690000CF00F0591F803C00CF0100CBCF1000F2A
:1006A00003D091F802C04CEA050591F800C0BCF1F6
:1006B000000F31D0146800202BE04FF0010C0CFA31
:1006C00000F3B1F800C00CEA03069E4220D183007B
:1006D0004FF00F0C0CFA03F7BC4305FA03FC4CEA8D
:1006E000040491F803C0BCF1280F06D14FF0010CAF
:1006F0000CFA00FCC2F814C00AE091F803C0BCF187
:10070000480F05D14FF0010C0CFA00FCC2F810C0E4
:10071000401C0828D1D31460B1F800C0BCF1FF0F11
:1007200034DD546800202EE000F1080C4FF0010881
:1007300008FA0CF3B1F800C00CEA03069E4221D17E
:1007400083004FF00F0C0CFA03F7BC4305FA03FCCF
:100750004CEA040491F803C0BCF1280F05D100F164
:10076000080C08FA0CF8C2F8148091F803C0BCF128
:10077000480F07D100F1080C4FF0010808FA0CF8F7
:10078000C2F81080401C0828CED35460BDE8F08128
:10079000F0B50A46002300240021002500F00046A1
:1007A000B6F1004F02D11D4EF16901E01B4E716898
:1007B000C0F3034583B200F44016B6F5401F08D1DC
:1007C00021F07061154E766826F07066134F7E60DA
:1007D00012E000F48016B6F5801F06D1032606FA53
:1007E00005F4A14341F0706106E0460D360103FABD
:1007F00006F6B14341F0706122B1460D360103FAAD
:1008000006F6314300F00046B6F1004F02D1034E28
:10081000F16101E0014E7160F0BD00000000014097
:100820000161704710B54148006800F00400A0B1B4
:100830000A2003F0A5FB3D48006800F004000028F2
:1008400071D002E0322003F09BFB3848006800F0D2
:1008500004000028F6D1012010BD3448006800F0E3
:100860004000A0B10A2003F08BFB3048006800F084
:100870004000002857D002E0322003F081FB2B48D3
:10088000006800F040000028F6D10220E4E7274885
:10089000006800F0080098B10A2003F071FB2348BB
:1008A000006800F0080090B302E0322003F068FB1B
:1008B0001E48006800F008000028F6D10320CBE7AE
:1008C0001A48006800F0200098B10A2003F058FB95
:1008D0001648006800F02000C8B102E0322003F0A2
:1008E0004FFB1248006800F020000028F6D10420D9
:1008F000B2E70E48006800F0100040B10A2003F093
:100900003FFB0A48006800F0100000B103E00AE075
:10091000322003F035FB0548006800F01000002885
:10092000F6D1052098E7002096E70000081801405E
:1009300010B54FF6FF7000F025F91DA20121084601
:1009400002F032FF1EA20321022002F02DFF1E48FA
:10095000006803F03FFC044622460821022002F012
:10096000CBFE1AA20321084602F01EFF19480068B8
:1009700003F030FC044622460821032002F0BCFEAE
:1009800012A20321042002F00FFF1348006803F0B5
:1009900021FC044622460821042002F0ADFE04E0BA
:1009A000FFF740FF052800D100E0F9E700BF10BDC8
:1009B000476574205049442057696E646F7773000F
:1009C00050203D20000000002000002049203D2054
:1009D00000000000240000202800002008B50121AC
:1009E000082002F073F94FF44060ADF800001020C9
:1009F0008DF8030003208DF8020069460448FFF7D4
:100A00003CFE4FF440610248FFF70AFF08BD0000BA
:100A1000000C014000B502461248006820F4704006
:100A2000104908600846006840F440500860002003
:100A30000D490860002311E002F0800020B1012080
:100A40000949091D086003E000200749091D0860E5
:100A5000FFF714FC5006020E581CC3B2082BEBDB48
:100A600000BD0000040C0140A881214200B50F48E0
:100A7000006820F470400D4908600846006840F4A2
:100A80004050086001200A4908600A49C1F8A801DD
:100A9000FFF706FC002006490860FFF701FCFFF79E
:100AA000FFFB00200349C1F8A80100BD040C014070
:100AB000AC8121420080214200B50D48006820F43D
:100AC00070400B4908600846006840F440500860D8
:100AD00001200849086000200749C1F8AC01FFF770
:100AE000DFFB01200349091D0860FFF7D9FB00BDAA
:100AF000040C0140A88121420080214200B500225F
:100B00001448006820F470401249086008460068E4
:100B100040F40040086001200F490860FFF7C0FB67
:100B200001200E49C1F8A801FFF7BAFB07E0501CED
:100B3000C2B2FA2A03DDFFF7BFFF012000BD06485D
:100B4000803800680028F2D10349091F086000BFFF
:100B5000F4E70000040C0140AC81214200802142F6
:100B600008B50121402002F0B1F87C20ADF800006A
:100B700048208DF8030069460148FFF77EFD08BD57
:100B80000018014070B504460026094805884088D1
:100B900045430021084601F0DDFD01F04FFF00BF95
:100BA00003E04FF0D8404480761CAE42F9D370BDCC
:100BB0002401002010B50446002C3DD1394988712C
:100BC000F02008804FF4A07048800846808849F2E1
:100BD0004131884205D03348808846F60401884276
:100BE00014D12C202F49C8712A2008722B2048725A
:100BF0000846808846F6040188424ED14FF4A07022
:100C0000284908804FF4F070488046E025488088E5
:100C100048F68911884207D122202249C8714E2006
:100C200008724F20487238E022201E49C8712020E7
:100C300008722120487230E01A48808846F6040184
:100C400088422AD00120174988714FF4A07008808B
:100C5000F02048800846808849F24131884207D117
:100C60002C201049C8712A2008722B20487214E0E9
:100C70000C48808848F68911884207D1222009490A
:100C8000C8714F2008724E20487206E022200549A4
:100C9000C8712120087220204872002001F074FCE5
:100CA00010BD00002401002030B504460D46294641
:100CB000204601F04FFD01F0C1FE034800884FF0CF
:100CC000D841488030BD00003000002000B59FB002
:100CD0000121080201F0DAFF012140F2E51001F0E4
:100CE000F5FF0220ADF8780010208DF87B0003207E
:100CF0008DF87A001EA9FE48FFF7BFFC0221FC48D0
:100D0000FFF78EFD4CF23370ADF8780018208DF8A7
:100D10007B0003208DF87A001EA9F648FFF7ADFC92
:100D20004FF68070ADF8780018208DF87B00032016
:100D30008DF87A001EA9F048FFF79FFC4FF4805011
:100D4000ADF8780018208DF87B0003208DF87A002C
:100D50001EA9EA48FFF791FC0120ADF878001820A1
:100D60008DF87B0003208DF87A001EA9E448FFF778
:100D700084FC01200890002009900F200A90002098
:100D80000B900C900D900E90019002900320039018
:100D90000020049005900690079006200F900020F8
:100DA0001090119010201290002013901590149024
:100DB000169017904FF480501890002019904FF41F
:100DC00080401A9000201B9008A81C9001A81D903C
:100DD0000FA8FFF7DFFB01210620FFF7C1FB322040
:100DE00003F0CEF80121002001F030FE322003F0A4
:100DF000C7F8002001F0BDFBC24988800846808802
:100E0000FF280ADB084680884FF6FF71884204D02D
:100E1000BC488088B0F5134F4BD1D32001F009FEB8
:100E200001F0A3FB01F0A1FB01F09FFBB549888015
:100E3000084680884FF6FF7101EA0020B14988809A
:100E400001F093FBAF4989880843AE498880084682
:100E5000808849F2413188421BD0BF2001F0E9FD72
:100E600001F083FB01F081FB01F07FFB01F07DFBD2
:100E7000A4498880084680884FF6FF7101EA002067
:100E8000A049888001F071FB9E49898808439D49EB
:100E900088809C48808849F24131884209D099482D
:100EA000808846F60401884203D049F241309549D2
:100EB00088809448808849F2413188427ED1CF2091
:100EC00001F0B7FD002001F0B0FDC12001F0ADFD43
:100ED000302001F0AAFDED2001F0ABFD642001F00F
:100EE000A4FD032001F0A1FD122001F09EFD812050
:100EF00001F09BFDE82001F09CFD852001F095FDAF
:100F0000102001F092FD7A2001F08FFDCB2001F03E
:100F100090FD392001F089FD2C2001F086FD002094
:100F200001F083FD342001F080FD022001F07DFD01
:100F3000F72001F07EFD202001F077FDEA2001F08E
:100F400078FD002001F071FD002001F06EFDC02051
:100F500001F06FFD1B2001F068FDC12001F069FD6B
:100F6000012001F062FDC52001F063FD302001F099
:100F70005CFD302001F059FDC72001F05AFDB7207B
:100F800001F053FD362001F054FD482001F04DFDE5
:100F90003A2001F04EFD552001F047FDB12001F04F
:100FA00048FD002001F041FD1A2001F03EFDB62071
:100FB00001F03FFD0A2001F038FD00E0A4E0A2208E
:100FC00001F033FDF22001F034FD002001F02DFD91
:100FD000262001F02EFD012001F027FDE02001F088
:100FE00028FD0F2001F021FD2A2001F01EFD282000
:100FF00001F01BFD082001F018FD0E2001F015FD89
:10100000082001F012FD542001F00FFDA92001F08D
:101010000CFD432001F009FD0A2001F006FD0F2020
:1010200001F003FD002001F000FD002001F0FDFCB7
:10103000002001F0FAFC002001F0F7FCE12001F0B3
:10104000F8FC002001F0F1FC152001F0EEFC172067
:1010500001F0EBFC072001F0E8FC112001F0E5FCB9
:10106000062001F0E2FC2B2001F0DFFC562001F00D
:10107000DCFC3C2001F0D9FC052001F0D6FC10205E
:1010800001F0D3FC0F2001F0D0FC3F2001F0CDFC9B
:101090003F2001F0CAFC0F2001F0C7FC2B2001F01B
:1010A000C8FC002001F0C1FC002001F0BEFC0120C2
:1010B00001F0BBFC3F2001F0B8FC2A2001F0B9FC94
:1010C000002001F0B2FC002001F0AFFC002001F094
:1010D000ACFCEF2001F0A9FC112001F0AAFC782063
:1010E00002F04EFF292001F0A4FC01F023BA000019
:1010F0000008014000140140001801400020014098
:10110000001C014024010020FE48808846F60401AE
:1011100088427CD1112001F08CFC142002F030FFB9
:10112000D02001F086FC072001F07FFC422001F076
:101130007CFC1D2001F079FCD12001F07AFC00201C
:1011400001F073FC1A2001F070FC092001F06DFC25
:10115000D22001F06EFC012001F067FC222001F09A
:1011600064FCC02001F065FC102001F05EFC3B2017
:1011700001F05BFC002001F058FC022001F055FC5E
:10118000112001F052FCC52001F053FC032001F0B6
:101190004CFCC82001F04DFC002001F046FC25204D
:1011A00001F043FC212001F040FC052001F03DFC52
:1011B000002001F03AFC0A2001F037FC652001F024
:1011C00034FC252001F031FC772001F02EFC50206A
:1011D00001F02BFC0F2001F028FC002001F025FC81
:1011E000F82001F026FC012001F01FFCFE2001F098
:1011F00020FC002001F019FC022001F016FC202048
:1012000001F017FC362001F014FC082000E02CE06F
:1012100001F00BFC3A2001F00CFC552001F005FC1C
:101220002B2001F006FC002001F0FFFB002001F064
:10123000FCFB012001F0F9FB3F2001F0F6FB2A2026
:1012400001F0F7FB002001F0F0FB002001F0EDFBC6
:10125000012001F0EAFBDF2001F0E7FB782002F03B
:101260008FFE292001F0E5FB3FE7A648808849F280
:10127000253188427ED147F6F001E52001F0E6FBFA
:101280004FF48071012001F0E1FB4FF4E061022096
:1012900001F0DCFB41F23001032001F0D7FB00211B
:1012A000042001F0D3FB40F20221082001F0CEFB24
:1012B0000021092001F0CAFB00210A2001F0C6FB31
:1012C00000210C2001F0C2FB00210D2001F0BEFB2B
:1012D00000210F2001F0BAFB0021102001F0B6FB25
:1012E0000721112001F0B2FB0021122001F0AEFB1A
:1012F0000021132001F0AAFB0021072001F0A6FB2A
:1013000041F29061102001F0A1FB40F22721112051
:1013100001F09CFB9D21122001F098FB4FF4C85175
:10132000132001F093FB2521292001F08FFB0D21D3
:101330002B2001F08BFB0721302001F087FB40F2CE
:101340000331312001F082FB0321322001F07EFBCA
:1013500040F20621352001F079FB0821362001F00A
:1013600075FB40F20641372001F070FB4FF44171EC
:10137000382000E057E001F069FB0721392001F037
:1013800065FB40F202613C2001F060FB08213D203A
:1013900001F05CFB0021502001F058FBEF215120AF
:1013A00001F054FB0021522001F050FB40F23F11AC
:1013B000532001F04BFB4FF42741602001F046FB26
:1013C0000121612001F042FB00216A2001F03EFB77
:1013D0000021802001F03AFB0021812001F036FB42
:1013E0000021822001F032FB0021832001F02EFB3E
:1013F0000021842001F02AFB0021852001F026FB3A
:101400001021902001F022FB4FF4C061922001F0E6
:101410001DFB40F23311072001F018FB22210020B0
:1014200001F014FB61E63748808849F22831884290
:101430006AD141F28F01EC2001F008FB41F2342126
:10144000EF2001F003FB4FF48071012001F0FEFA60
:101450004FF4E061022001F0F9FA41F2300103207B
:1014600001F0F4FA0021042001F0F0FA40F2022128
:10147000082001F0EBFA0021092001F0E7FA002131
:101480000A2001F0E3FA01210C2001F0DFFA00212B
:101490000D2001F0DBFA00210F2001F0D7FA002126
:1014A000102001F0D3FA0721112001F0CFFA00211A
:1014B000122001F0CBFA0021132001F0C7FA01211C
:1014C000072001F0C3FA322002F05AFD41F29041A8
:1014D000102001F0BBFA40F22721112001F0B6FAEA
:1014E000322002F04DFD8A21122001F0AFFA3220A5
:1014F00002F046FD4FF4D051132001F0A7FA062167
:10150000292002E0240100208AE001F09FFA0D2149
:101510002B2001F09BFA322002F032FD0021202026
:1015200001F094FA0021212001F090FA322002F01B
:1015300027FD0021302001F089FA40F204613120BA
:1015400001F084FA40F20531322001F07FFA0021E7
:10155000352001F07BFA40F60941362001F076FA99
:101560004FF40171372001F071FA40F20131382057
:1015700001F06CFA40F20771392001F067FA00219E
:101580003C2001F063FA40F60A213D2001F05EFAAA
:10159000322002F0F5FC0021502001F057FAEF2133
:1015A000512001F053FA0021522001F04FFA40F28D
:1015B0003F11532001F04AFA4FF42741602001F017
:1015C00045FA0121612001F041FA00216A2001F071
:1015D0003DFA0021802001F039FA0021812001F03C
:1015E00035FA0021822001F031FA0021832001F038
:1015F0002DFA0021842001F029FA0021852001F034
:1016000025FA1021902001F021FA4FF4C0619220B8
:1016100001F01CFA40F23311072001F017FA64E5DB
:10162000FE48808849F2203188427DD10021084659
:1016300001F00CFA4FF48071012001F007FA4FF429
:10164000E061022001F002FA41F23001032001F0D2
:10165000FDF90021042001F0F9F940F202210820EF
:1016600001F0F4F90021092001F0F0F900210A202D
:1016700001F0ECF901210C2001F0E8F900210D2026
:1016800001F0E4F900210F2001F0E0F9322002F02E
:1016900077FC40F20111072001F0D8F9322002F066
:1016A0006FFC4FF48651102001F0D0F90721112072
:1016B00001F0CCF94FF48871122001F0C7F94FF412
:1016C0003061132001F0C2F90021292001F0BEF998
:1016D00044F210012B2001F0B9F90021502001F053
:1016E000B5F9EF21512001F0B1F90021522001F0AC
:1016F000ADF940F23F11532001F0A8F94FF41C510D
:10170000602001F0A3F90121612001F09FF900217F
:101710006A2001F09BF90021802001F097F9002157
:10172000812001F093F900E02EE00021822001F0F9
:101730008DF90021832001F089F90021842001F036
:1017400085F90021852001F081F91021902001F018
:101750007DF90021922001F079F90121932001F017
:1017600075F94FF48871952001F070F900219720E8
:1017700001F06CF90021982001F068F940F2731132
:10178000072001F063F9B0E4A448808849F23131C0
:1017900088427DD141F21401E72001F057F94FF45E
:1017A0008071012001F052F94FF40071022001F024
:1017B0004DF941F23801032001F048F940F20221CD
:1017C000082001F043F90021092001F03FF9002130
:1017D0000A2001F03BF900210C2001F037F900212B
:1017E0000D2001F033F900210F2001F02FF9002125
:1017F000102001F02BF90721112001F027F9002119
:10180000122001F023F90021132001F01FF9C82054
:1018100002F0B6FB41F29061102001F017F940F29E
:101820002721112001F012F9322002F0A9FB0C212E
:10183000122001F00BF9322002F0A2FB4FF40061FC
:10184000132001F003F91121292001F0FFF80B21E9
:101850002B2001F0FBF8322002F092FB0021202027
:1018600001F0F4F840F23F11212001F0EFF80021DF
:10187000302001F0EBF84FF48371312001F0E6F8ED
:101880000021322001F0E2F84FF40171352000E030
:1018900064E001F0DBF841F20A61362001F0D6F88D
:1018A00040F20771372001F0D1F84FF483713820EE
:1018B00001F0CCF840F20771392001F0C7F840F28E
:1018C00002413C2001F0C2F840F60F413D2001F0FA
:1018D000BDF80021502001F0B9F8EF21512001F0AE
:1018E000B5F80021522001F0B1F840F23F11532029
:1018F00001F0ACF84FF41C51602001F0A7F8012171
:10190000612001F0A3F800216A2001F09FF8002176
:10191000802001F09BF80021812001F097F8002140
:10192000822001F093F80021832001F08FF800213C
:10193000842001F08BF80021852001F087F8102128
:10194000902001F083F84FF4C061922001F07EF8FE
:1019500040F23311072001F079F885E42F488088A0
:1019600045F2084188427DD14FF48071012001F099
:101970006DF84FF4E061022001F068F841F23001A7
:10198000032001F063F80021042001F05FF840F229
:101990000721082001F05AF80021092001F056F82B
:1019A00000210A2001F052F800210C2001F04EF82D
:1019B00000210D2001F04AF800210F2001F046F827
:1019C000142002F0DDFA41F2B061102001F03EF87F
:1019D0000121112001F03AF80121172001F036F819
:1019E0004FF49C71122001F031F84FF40061132084
:1019F00001F02CF80921292001F028F809212A20DA
:101A000001F024F80021A42001F020F8002150204A
:101A100001F01CF8EF21512002E000002401002019
:101A200001F014F80021522001F010F840F23F11AB
:101A3000532001F00BF84FF41C51602001F006F820
:101A40000121612001F002F800216A2000F0FEFF70
:101A50000021802000F0FAFF0021812000F0F6FF35
:101A6000002100E028E0822000F0F0FF0021832028
:101A700000F0ECFF0021842000F0E8FF0021852029
:101A800000F0E4FF1321902000F0E0FF00219220FD
:101A900000F0DCFF0321932000F0D8FF4FF48871A1
:101AA000952000F0D3FF40F27311072000F0CEFF25
:101AB000322002F065FAB5E4FE48808841F2055113
:101AC00088427DD10021072000F0C0FF322002F0C3
:101AD00057FA4FF48E71122000F0B8FF0121A420B4
:101AE00000F0B4FF0F21082000F0B0FF08210A2009
:101AF00000F0ACFF08210D2000F0A8FF40F20771B4
:101B0000302000F0A3FF0721312000F09FFF40F2BA
:101B10000361322000F09AFF4FF4E061332000F0BF
:101B200095FF40F20221342000F090FF0221352081
:101B300000F08CFF41F60F71362000F087FF40F275
:101B40000771372000F082FF0021382000F07EFF6F
:101B50000021392000F07AFF40F207713A2000F0AE
:101B600075FF00213B2000F071FF07213C2000F0B1
:101B70006DFF00213D2000F069FF322002F000FAE5
:101B80000121072000F062FF0121172000F05EFF15
:101B9000322002F0F5F94FF4BD51102000F056FF4D
:101BA00040F21721112000F051FF4FF48F711220E5
:101BB00000F04CFF4FF47061132000F047FF00E08D
:101BC00095E000212A2000F041FF0A21292000F0A1
:101BD0003DFF4FF49F71122000F038FF002150208C
:101BE00000F034FFEF21512000F030FF002152209F
:101BF00000F02CFF40F23F11532000F027FF4FF47C
:101C00001C51602000F022FF0121612000F01EFF26
:101C100000216A2000F01AFF0021802000F016FF4A
:101C20000021812000F012FF0021822000F00EFF31
:101C30000021832000F00AFF0021842000F006FF2D
:101C40000021852000F002FF1321902000F0FEFE0D
:101C50004FF44071922000F0F9FE0521932000F02E
:101C6000F5FE0021952000F0F1FE0021972000F004
:101C7000EDFE0021982000F0E9FE4FF48071012074
:101C800000F0E4FE4FF4E061022000F0DFFE41F2DC
:101C90003801032000F0DAFE0021042000F0D6FE17
:101CA00000210C2000F0D2FE00210F2000F0CEFE1B
:101CB0000021202000F0CAFE0021212000F0C6FEF5
:101CC0002121072000F0C2FE142002F059F9612101
:101CD000072000F0BBFE142002F052F940F273110D
:101CE000072000F0B3FE142002F04AF997E471488F
:101CF00080884BF2055188427ED10021084600F0D1
:101D0000A5FE0021084600F0A1FE0021084600F0D3
:101D10009DFE0021084600F099FE0121A42000F05C
:101D200095FE142002F02CF94FF41C51602000F0B5
:101D30008DFE40F20221082000F088FE4FF405716C
:101D4000302000F083FE43F21571312000F07EFE5A
:101D500040F20461322000F079FE40F61661332033
:101D600000F074FE42F21121342000F06FFE4FF4B7
:101D7000A851352000F06AFE48F20751362000F0E5
:101D800065FE41F20741372000F060FE41F2034159
:101D9000382000F05BFE2021392000F057FE1A2188
:101DA000902000F053FE0021102000F04FFE07218C
:101DB000112000F04BFE0021122000F047FE002110
:101DC000132000F043FE142002F0DAF84FF4E6612D
:101DD000102000F03BFE40F23711112000F036FEDB
:101DE000142002F0CDF84FF4DC71122000F02EFE2A
:101DF000142002F0C5F800E087E04FF47061132072
:101E000000F024FE80212A2000F020FE4821292015
:101E100000F01CFE142002F0B3F84FF48071012092
:101E200000F014FE4FF4E061022000F00FFE41F2DA
:101E30003801032000F00AFE40F20221082000F0E1
:101E400005FE00210A2000F001FE00210C2000F018
:101E5000FDFD00210D2000F0F9FD30210E2000F0E5
:101E6000F5FD0021502000F0F1FDEF21512000F0A0
:101E7000EDFD0021522000F0E9FD40F23F1153201A
:101E800000F0E4FD4FF41C51602000F0DFFD012163
:101E9000612000F0DBFD00216A2000F0D7FD112158
:101EA000902000F0D3FD4FF4C061922000F0CEFDF1
:101EB00002E000002401002040F20241932000F0E3
:101EC000C5FD0221942000F0C1FD142002F058F855
:101ED0000121072000F0BAFD142002F051F8612121
:101EE000072000F0B3FD40F27311072000F0AEFDB3
:101EF0000021202000F0AAFD0021212000F0A6FDF5
:101F00002221002000F0A2FD14E3FE4880884CF25C
:101F1000055188427ED10021084600F097FD00213E
:101F2000084600F093FD142002F02AF8002108462C
:101F300000F08CFD0021084600F088FD00210846D5
:101F400000F084FD0021084600F080FD0121A4205E
:101F500000F07CFD142002F013F84FF41C516020B7
:101F600000F074FD40F60601082000F06FFD40F21D
:101F70000371302000F06AFD0121312000F066FD80
:101F80000421322000F062FD4FF48171332000F013
:101F90005DFD4FF44071342000F058FD40F2031114
:101FA000352000F053FD1F21362000F04FFD40F298
:101FB0000371372000F04AFD0121382000F046FD72
:101FC0000421392000F042FD1521902000F03EFD53
:101FD0004FF48261102000F039FD40F247211120BA
:101FE00000F034FD4FF4DE71122000F02FFD4FF4AD
:101FF0006061132000F02AFD782001F0C1FF4FF44A
:102000008071012000F022FD4FF40071022000F0E9
:102010001DFD00E050E041F23001032000F016FD0C
:1020200008210A2000F012FD00210C2000F00EFD16
:1020300020210E2000F00AFD00210F2000F006FDF7
:102040000021202000F002FD0021212000F0FEFCF4
:102050003D212A2000F0FAFC142001F091FF2D21EF
:10206000292000F0F3FC0021502000F0EFFC4DF29D
:10207000EF01512000F0EAFC0021522000F0E6FCC4
:1020800040F23F11532000F0E1FC0021612000F0FC
:10209000DDFC00216A2000F0D9FC4FF44071922051
:1020A00000F0D4FC0521932000F0D0FC4FF48071A7
:1020B000072000F0CBFC3DE29248808848F6891169
:1020C00088427DD10121002000F0C0FC4AF6A40125
:1020D000032000F0BBFC00210C2000F0B7FC40F610
:1020E0000C010D2000F0B2FC4FF42C510E2000F03A
:1020F000ADFCB0211E2000F0A9FC42F63F310120CA
:1021000000F0A4FC4FF4C061022000F09FFC00210D
:10211000102000F09BFC46F27801112000F096FCA4
:102120000021052000F092FC0021062000F08EFC2A
:102130004EF61C71162000F089FC0321172000F0D8
:1021400085FC40F23321072000F080FC00210B20A9
:1021500000F07CFC00210F2000F078FC00214120E1
:1021600000F074FC0021422000F070FC00214820A7
:1021700000F06CFC40F23F11492000F067FC0021A8
:102180004A2000F063FC00214B2000F05FFC4FF47C
:102190006F41442000F05AFC0021452000F056FC1D
:1021A00040F23F11462000F051FC40F20771302010
:1021B00000F04CFC4FF40171312000F047FC00E0CE
:1021C0003DE04FF40171322000F040FC40F202513A
:1021D000332000F03BFC40F20751342000F036FC85
:1021E0004FF40171352000F031FC4FF401713620BD
:1021F00000F02CFC40F20251372000F027FC40F2A6
:1022000002313A2000F022FC40F202313B2000F083
:102210001DFC0021232000F019FC0021242000F0E7
:1022200015FC4FF40041252000F010FC00214F2048
:1022300000F00CFC00214E2000F008FC7AE131484F
:10224000808844F2315188427DD10121002000F084
:10225000FDFB0A2001F094FE41F22861102000F0FD
:10226000F5FB0E21122000F0F1FB40F6392113207E
:1022700000F0ECFB0A2001F083FE4021112000F069
:10228000E5FB5021152000F0E1FB0A2001F078FE6B
:102290001E21122000F0DAFB0A2001F071FE4FF43B
:1022A000B151102000F0D2FB42F63921132000F08A
:1022B000CDFB0A2001F064FE4FF48071012000F094
:1022C000C5FB4FF44071022000F0C0FB41F2380121
:1022D000032000F0BBFB40F20221082000F0B6FB17
:1022E00008210A2000F0B2FB0021302000F0AEFBF4
:1022F00040F20241312000F0A9FB4FF483713220FB
:1023000002E000002401002000F0A0FB40F2035195
:10231000332000F09BFB4FF48271342000F096FBD9
:1023200040F20131352000F091FB40F20771362078
:1023300000F08CFB40F20531372000F087FB4FF4B2
:102340000271382000E040E000F080FB40F60B71A5
:10235000392000F07BFB0221412000F077FB4FF495
:102360001C51602000F072FB0121612000F06EFB27
:102370004FF40471902000F069FB4FF485719220B6
:1023800000F064FB0421932000F060FB4FF48071A7
:10239000A02000F05BFB0121072000F057FB21216A
:1023A000072000F053FB2321072000F04FFB3321CF
:1023B000072000F04BFB40F23311072000F046FBF2
:1023C0000021A02000F042FBB4E06048808844F285
:1023D00035518842F8D13021152000F037FB10210B
:1023E0009A2000F033FB2021112000F02FFB43F254
:1023F0002841102000F02AFB0221122000F026FBC9
:1024000041F23801132000F021FB282001F0B8FD33
:102410001221084600F01AFB282001F0B1FD43F21A
:102420002041102000F012FB43F23801132000F08D
:102430000DFB462001F0A4FD0021302000F006FB3A
:1024400040F20241312000F001FB40F2073132201E
:1024500000F0FCFA4FF44171332000F0F7FA042148
:10246000342000F0F3FA40F20141352000F0EEFA9A
:1024700040F20771362000F0E9FA40F205313720CA
:1024800000F0E4FA4FF4C261382000F0DFFA4FF4B4
:10249000C261392000F0DAFA4FF48071012000F0B7
:1024A000D5FA4FF44071022000F0D0FA41F2300129
:1024B000032000F0CBFA40F60801082000F0C6FA2D
:1024C00008210A2000F0C2FA4FF41C51602000F0ED
:1024D000BDFA0121612000F0B9FA4FF49F719020FC
:1024E00000F0B4FA4FF48071922000F0AFFA4FF48C
:1024F0008071932000F0AAFA4FF44051A02000F020
:10250000A5FA1021A32000F0A1FA0121072000F074
:102510009DFA2121072000F099FA2321072000F0DD
:1025200095FA3321072000F091FA40F23311072089
:1025300000F08CFA0020FEF73DFB01200449086002
:102540004FF6FF70FEF71EFB1FB000BD24010020F8
:102550008401214210B50246012000E050430B1EC9
:10256000A1F10104E1B2F9D110BD4FF0D84040888B
:10257000704710B50446204600F05BFA052001F0D4
:1025800025FDFFF7F2FF10BD70B5044600230026BD
:102590006F48807901281ED16D48808846F6040175
:1025A000884218D0082C15D2DFE804F00406080A87
:1025B0000C0E101206240DE007240BE0042409E0A1
:1025C000052407E0012405E0002403E0032401E0E2
:1025D000022400BF00BF5E48808849F24131884232
:1025E00005D05B48808846F6040188427CD1082CDF
:1025F0001CD2DFE804F00406090C0F12151800BF06
:1026000014E043F0800311E043F040030EE043F098
:10261000C0030BE043F0200308E043F0600305E053
:1026200043F0A00302E043F0E00300BF00BF362602
:1026300043F008034648808846F60401884201D1E9
:1026400043F002031946304600F000FA03F0200080
:1026500068B13F4800883E494988884214DA3C48BE
:10266000058840883A490880084645800CE038488B
:10267000008837494988884206DD35480588408802
:1026800033490880084645803149087A00F0D1F97D
:10269000002000F0CAF9002000F0C7F92C49098891
:1026A000491EC1F30F2000F0C0F929490978491EDD
:1026B000C8B200F0BAF92649487A00F0BAF9002009
:1026C00000F0B3F9002000F0B0F921494988491E13
:1026D000C1F30F2000F0A9F91D498978491EC8B23D
:1026E00000F0A3F932E0FFE7082C1CD2DFE804F089
:1026F00004070A0D0F12151843F0300313E043F0DE
:10270000100310E043F020030DE000BF0BE043F0A6
:10271000380308E043F0280305E043F0180302E023
:1027200043F0080300BF00BF0948808848F68911BC
:10273000884204D1112646F24000034302E00326FA
:1027400043F480531946304600F080F970BD000014
:102750002401002010B503460C461A48808849F22F
:102760004131884205D01748808846F604018842E6
:1027700014D11449087A00F05CF9181200F055F9E8
:10278000D8B200F052F90F49487A00F052F92012FD
:1027900000F04BF9E0B200F048F912E00948807906
:1027A000012804D107480088401EC01A83B2054999
:1027B000087A194600F04AF90249487A214600F0A1
:1027C00045F910BD240100202DE9F84F05460F46BC
:1027D00090461E4600975148B0F80090A8F120009E
:1027E00000F0FF080A9800284ED1002449E00C2E82
:1027F00007D108EB48004A4901EB800010F804A01B
:1028000004E0484800EB081010F804A04FF0000B5B
:1028100031E00AF0800018B14048A0F8009003E0D1
:10282000414800883D49088039462846FEF73CFA71
:102830004FEA4A604FEA106A781C87B23B4800882A
:10284000A84204DC3548A0F80090BDE8F88F009855
:10285000381AB0420BD1009F681C85B233480088FB
:10286000A84203DC2D48A0F80090EEE706E00BF14B
:10287000010000F0FF0BBBF1080FCADB00BF601CBA
:10288000C4B2B442B3DB44E0002440E00C2E07D1D4
:1028900008EB4800224901EB800010F804A004E096
:1028A000204800EB081010F804A04FF0000B28E0BF
:1028B0000AF0800018B139462846FEF7F5F94FEACC
:1028C0004A604FEA106A781C87B218484088A842CC
:1028D00003DC1248A0F80090B7E70098381AB0421D
:1028E0000BD1009F681C85B210480088A84203DC09
:1028F0000A48A0F80090A8E706E00BF1010000F0FC
:10290000FF0BBBF1080FD3DB00BF601CC4B2B442A5
:10291000BCDB0248A0F8009000BF96E73000002022
:102920008A430008FE4700083200002024010020EE
:102930002DE9FF4F81B0074691461E460E9D4FF090
:10294000000A002439E0301B401EC1B20A20FFF704
:1029500001FEB9FBF0F00A21B0FBF1F201FB120815
:10296000BAF1000F16D1701EA04213DDB8F1000FAE
:102970000ED10020AB4605EBDB71491001FB047161
:10298000009088B22B4620220299FFF71DFF12E02B
:102990004FF0010A0020AB4605EBDB71491001FB4B
:1029A0000471009088B208F13001CAB22B46029936
:1029B000FFF70AFF00BF601CC4B2B442C3DB05B01E
:1029C000BDE8F08F2DE9F84704460D46904699463C
:1029D000DDE9096704F0FF0A08EB04001FFA80F83C
:1029E00009EB05001FFA80F916E0444502DB544666
:1029F000A81985B24D4500DB14E0002000903A781C
:102A0000334629462046FFF7DFFE304606EBD071FD
:102A100004EB61018CB27F1C38787E2802DC3878A8
:102A20002028E2DA00BFBDE8F8874FF0D84148809F
:102A300070474FF0D8410880704700000248C079C5
:102A40004FF0D84108807047240100204FF0D84251
:102A5000108051807047000008B50121202000F04F
:102A600035F94FF4C040ADF8000010208DF8030098
:102A700003208DF8020069460148FDF7FEFD08BD00
:102A80000014014070B500240426012544E015B16E
:102A9000204600F049F8FDF7C5FE0546012D06D198
:102AA000701E044494FBF6F006FB104434E0022D43
:102AB00005D1641C94FBF6F006FB10442CE0032DBA
:102AC0000AD1022C28D116480068411E002001F0CE
:102AD000C1FA134908601FE0042D0BD1022C1BD151
:102AE0000F480168491C0F48006801F0BAFA0C4908
:102AF000086011E0052D0FD114B9FDF719FF0BE0A7
:102B0000012C02D100F082FC06E0032C04D14FF628
:102B1000FF70FEF737F800E0B9E700BF70BD0000B6
:102B2000000000200400002010B504464FF6FF709E
:102B3000FEF728F812A20121084600F035FE13A284
:102B40000321022000F030FE12A20321084600F00B
:102B50002BFE12A20321042000F026FE12480F21B2
:102B60000268042000F0C8FD10A20321052000F037
:102B70001BFEA01C0FA2172100F016FE10BD0000C6
:102B80004D61696E2057696E646F770047657420E8
:102B900050494400536574205049440053657420E3
:102BA0004D6F6465000000000000002053746172E6
:102BB000740000003C2D000010B5FDF739FC40F218
:102BC0009F5140F2E73001F025F810BD70B50021AB
:102BD00000230F22C47804B3154C246804F4E06485
:102BE000C4F5E064210AC1F10403CA40447804FA40
:102BF00003F184781440214309010E4C0678A15555
:102C0000047804F01F050124AC4005786D11AD0077
:102C100005F1E025C5F8004109E0047804F01F053E
:102C20000124AC40044D0678761145F8264070BD6D
:102C30000CED00E000E400E080E100E00020094944
:102C4000086009490860094908600948094908609D
:102C500009480A4908600A480A4908600A490860A0
:102C60007047000014000020180000201C00002005
:102C70000000884120000020CDCC4C3E24000020E4
:102C80000050C346280000202C00002029B1064A2D
:102C900052690243044B5A6104E0034A5269824379
:102CA000014B5A61704700000010024029B1064AEA
:102CB000D2690243044BDA6104E0034AD2698243D9
:102CC000014BDA61704700000010024029B1064A4A
:102CD00092690243044B9A6104E0034A9269824379
:102CE000014B9A61704700000010024030B500218E
:102CF0000022002400232D4D6D6805F00C0121B148
:102D0000042905D0082923D105E0294D056022E0DA
:102D1000274D05601FE0254D6D6805F47012234DA9
:102D20006D6805F48034022505EB92421CB9214DF3
:102D3000554305600BE01D4D6D6805F400351DB170
:102D40001C4D5543056002E0194D5543056002E0F6
:102D5000174D056000BF00BF144D6D6805F0F00110
:102D60000909154D6B5C0568DD4045600F4D6D68C8
:102D700005F4E061090A104D6B5C4568DD40856033
:102D80000A4D6D6805F46051C90A0B4D6B5C4568CE
:102D9000DD40C560054D6D6805F44041890B074D68
:102DA0006B5CC568B5FBF3F5056130BD00100240F2
:102DB00000127A0000093D00340000204400002089
:102DC00010B500F001F810BD0CB500200190009086
:102DD0003348006840F480303149086000BF304813
:102DE000006800F4003000900198401C01900098A9
:102DF00018B90198B0F5A06FF1D12948006800F426
:102E0000003010B10120009001E0002000900098F7
:102E1000012843D12348006840F010002149086090
:102E20000846006820F0030008600846006840F08B
:102E3000020008601A48406819494860084640681E
:102E400048600846406840F4806048600846406832
:102E500020F47C1048600846406840F4E810486060
:102E60000846006840F08070086000BF0C480068A9
:102E700000F000700028F9D00948406820F00300F5
:102E8000074948600846406840F00200486000BFBB
:102E90000348406800F00C000828F9D10CBD000080
:102EA000001002400020024070B5002405260125D4
:102EB00086E015B1204600F091F8FDF7B3FC054619
:102EC000012D06D1701E044494FBF6F006FB10445D
:102ED00076E0022D05D1641C94FBF6F006FB10444D
:102EE0006EE0032D31D144B94FF07E513648006871
:102EF00001F0D6F93449086062E0012C07D133496A
:102F00003148006801F0CCF92F49086058E0022CE4
:102F100007D12F492C48006801F0C2F92A490860FE
:102F20004EE0032C07D12B492748006801F0B8F97F
:102F30002549086044E0042C42D127492248006812
:102F400001F0AEF9204908603AE0042D31D144B9CE
:102F50004FF07E511C48006801F0DAF81A49086009
:102F60002EE0012C07D119491748006801F0D0F86C
:102F70001549086024E0022C07D115491248006861
:102F800001F0C6F8104908601AE0032C07D1114976
:102F90000D48006801F0BCF80B49086010E0042CF3
:102FA0000ED10D490848006801F0B2F806490860E2
:102FB00006E0052D04D14FF6FF70FDF7E3FD00E0BC
:102FC00077E700BF70BD000028000020000020410E
:102FD0000000C84200007A4400401C4670B5044618
:102FE0004FF6FF70FDF7CEFD16A20121084600F056
:102FF000DBFB1648006801F0EDF805462A4605217E
:10300000012000F079FB12A20321022000F0CCFB8A
:1030100010A20321084600F0C7FB0FA203210420E1
:1030200000F0C2FB0EA20321052000F0BDFB0EA2A2
:103030000321062000F0B8FBA01C0DA2172100F010
:10304000B3FB70BD44203D2000000000280000209C
:1030500078310000783130007831303000000000E5
:1030600078313030300000007831303030300000BE
:103070003C2D000070B500240526012586E015B121
:10308000204600F091F8FDF7CDFB0546012D06D155
:10309000701E044494FBF6F006FB104476E0022D0B
:1030A00005D1641C94FBF6F006FB10446EE0032D82
:1030B00031D144B94FF07E513648006801F0F0F844
:1030C0003449086062E0012C07D133493148006877
:1030D00001F0E6F82F49086058E0022C07D12F498B
:1030E0002C48006801F0DCF82A4908604EE0032C07
:1030F00007D12B492748006801F0D2F8254908601C
:1031000044E0042C42D127492248006801F0C8F865
:10311000204908603AE0042D31D144B94FF07E5186
:103120001C48006800F0F4FF1A4908602EE0012CEA
:1031300007D119491748006800F0EAFF15490860EF
:1031400024E0022C07D115491248006800F0E0FF86
:10315000104908601AE0032C07D111490D48006896
:1031600000F0D6FF0B49086010E0042C0ED10D4989
:103170000848006800F0CCFF0649086006E0052D0D
:1031800004D14FF6FF70FDF7FDFC00E077E700BFCC
:1031900070BD000024000020000020410000C84253
:1031A00000007A4400401C4670B504464FF6FF709C
:1031B000FDF7E8FC16A20121084600F0F5FA1648D2
:1031C000006801F007F805462A460521012000F0B5
:1031D00093FA12A20321022000F0E6FA10A20321C2
:1031E000084600F0E1FA0FA20321042000F0DCFA07
:1031F0000EA20321052000F0D7FA0EA2032106201B
:1032000000F0D2FAA01C0DA2172100F0CDFA70BD7B
:1032100049203D20000000002400002078310000FB
:1032200078313000783130300000000078313030B3
:103230003000000078313030303000003C2D00008C
:1032400070B500240526012586E015B1204600F062
:1032500091F8FDF7E7FA0546012D06D1701E0444EA
:1032600094FBF6F006FB104476E0022D05D1641CB9
:1032700094FBF6F006FB10446EE0032D31D144B907
:103280004FF07E513648006801F00AF83449086072
:1032900062E0012C07D133493148006801F000F8A1
:1032A0002F49086058E0022C07D12F492C480068AC
:1032B00000F0F6FF2A4908604EE0032C07D12B49A5
:1032C0002748006800F0ECFF2549086044E0042C22
:1032D00042D127492248006800F0E2FF20490860F7
:1032E0003AE0042D31D144B94FF07E511C480068BA
:1032F00000F00EFF1A4908602EE0012C07D1194991
:103300001748006800F004FF1549086024E0022C0B
:1033100007D115491248006800F0FAFE104908600C
:103320001AE0032C07D111490D48006800F0F0FEA7
:103330000B49086010E0042C0ED10D4908480068C4
:1033400000F0E6FE0649086006E0052D04D14FF6C0
:10335000FF70FDF717FC00E077E700BF70BD0000CD
:103360002C000020000020410000C84200007A44E8
:1033700000401C4670B504464FF6FF70FDF702FC96
:1033800016A20121084600F00FFA1648006800F066
:1033900021FF05462A460521012000F0ADF912A2C1
:1033A0000321022000F000FA10A20321084600F0D9
:1033B000FBF90FA20321042000F0F6F90EA203216D
:1033C000052000F0F1F90EA20321062000F0ECF92F
:1033D000A01C0DA2172100F0E7F970BD4C203D2084
:1033E000000000002C00002078310000783130000F
:1033F000783130300000000078313030300000008B
:1034000078313030303000003C2D000070B50024A1
:103410000526012533E015B1204600F033F8FDF70D
:1034200001FA0546012D06D1701E044494FBF6F006
:1034300006FB104423E0022D05D1641C94FBF6F03A
:1034400006FB10441BE0052D19D114B900F06EF8ED
:1034500015E0012C02D1FFF70DFE10E0022C02D185
:10346000FFF722FD0BE0032C02D1FFF7E9FE06E097
:10347000042C04D14FF6FF70FDF784FB00E0CAE78F
:1034800000BF70BD10B504464FF6FF70FDF77AFB24
:1034900011A20121084600F087F913A2032102209E
:1034A00000F082F914A20321084600F07DF916A26B
:1034B0000321042000F078F917A20321052000F071
:1034C00073F918A20321062000F06EF9A01C16A2C1
:1034D000172100F069F910BD53657420504944204C
:1034E00057696E646F7773005365742050726F7004
:1034F0006F7274696F6E000053657420496E746555
:103500006772616C00000000536574204465726945
:103510007661746976650000536574204C696D6945
:10352000740000004F4B21003C2D000070B50024BA
:103530000526012586E015B1204600F091F8FDF73B
:1035400071F90546012D06D1701E044494FBF6F076
:1035500006FB104476E0022D05D1641C94FBF6F0C6
:1035600006FB10446EE0032D31D144B94FF07E517B
:103570003648006800F094FE3449086062E0012C8F
:1035800007D133493148006800F08AFE2F490860AE
:1035900058E0022C07D12F492C48006800F080FE2B
:1035A0002A4908604EE0032C07D12B4927480068C0
:1035B00000F076FE2549086044E0042C42D12749FA
:1035C0002248006800F06CFE204908603AE0042DB3
:1035D00031D144B94FF07E511C48006800F098FD8D
:1035E0001A4908602EE0012C07D1194917480068D4
:1035F00000F08EFD1549086024E0022C07D1154922
:103600001248006800F084FD104908601AE0032C9D
:1036100007D111490D48006800F07AFD0B49086098
:1036200010E0042C0ED10D490848006800F070FD30
:103630000649086006E0052D04D14FF6FF70FDF73E
:10364000A1FA00E077E700BF70BD00002000002075
:10365000000020410000C84200007A4400401C469F
:1036600070B504464FF6FF70FDF78CFA16A20121E3
:10367000084600F099F81648006800F0ABFD0546D2
:103680002A460521012000F037F812A2032102206A
:1036900000F08AF810A20321084600F085F80FA276
:1036A0000321042000F080F80EA20321052000F081
:1036B0007BF80EA20321062000F076F8A01C0DA2D4
:1036C000172100F071F870BD50203D20000000006F
:1036D000200000207831000078313000783130301F
:1036E0000000000078313030300000007831303098
:1036F000303000003C2D00002DE9F84106460C4614
:103700001546A846002703E07F1C0A2098FBF0F826
:10371000B8F1000FF8D1002D15DA1AA22146304673
:1037200000F042F81020FBB206EB86024FF6FF7C59
:103730000CEA8201122202EBC402009090B26A42AB
:10374000FFF7F6F81BE02DB911A22146304600F034
:103750002BF814E011A22146304600F025F8102085
:10376000FBB206EB86024FF6FF7C0CEA82010A22CE
:1037700002EBC402009090B22A46FFF7D9F8BDE8E8
:10378000F88100002D202020202020202020000073
:103790003020202020202020202000002020202059
:1037A00020202020200000007CB505460C4616464F
:1037B000102005EB85024FF6FF7303EA82010A220F
:1037C00002EBC402CDE9000690B21023C822FFF735
:1037D000F9F87CBD042808D14FF0E021096941F0D7
:1037E00004014FF0E022116107E04FF0E021096988
:1037F00021F004014FF0E0221161704710B5134829
:10380000006840F00100114908600846406810490E
:1038100008400E494860084600680E4908400B49B8
:1038200008600846006820F4802008600846406868
:1038300020F4FE0048604FF41F008860FFF7C0FAD4
:103840004FF000600449086010BD00000010024005
:103850000000FFF8FFFFF6FE08ED00E010B50020C5
:103860000C49086005200C49086000F067FB4FF424
:10387000E13000F0FDFBFDF7B1F8FCF701FEFFF7CA
:10388000EBF8FFF7DBF9FFF797F9FDF71FFAFDF704
:1038900067F910BD0000002004000020704721B12E
:1038A000028842F00102028004E002884FF6FE73B3
:1038B0001A4002807047000070B5002400220023E7
:1038C000058C4FF6FE7635400584028C8388048B88
:1038D0004FF68F752C40B51E2C400D882C43751E5D
:1038E0002A400D892A434D882A43144DA8420BD003
:1038F000134DA84208D0134DA84205D0124DA8423E
:1039000002D0124DA84213D14FF6F7752A404D89C7
:103910002A434FF6FB752A408D882A434FF6FF65F0
:103920002B404FF6FF552B408D892B43CD892B43E0
:1039300083800483CD888586028470BD002C01407D
:103940000034014000400140004401400048014073
:103950000A460021018B4FF6F7731940114301838A
:103960007047000070B5002400220023058C4FF63C
:10397000EF7635400584028C8388048B48F6FF750A
:103980002C404FF6FF452C400D884FF6FF7606EA97
:1039900005252C434FF6DF752A400D8906EA0515EB
:1039A0002A434D8806EA05152A43154DA84202D040
:1039B000144DA8421DD14FF67F752A404D894FF610
:1039C000FF7606EA05152A434FF6BF752A408D8813
:1039D00006EA05152A434FF6FF352B404FF2FF75D7
:1039E0002B408D8906EA85052B43CD8906EA85059E
:1039F0002B4383800483CD880587028470BD00003B
:103A0000002C0140003401400A460021018B4FF296
:103A1000FF7319404FF6FF7303EA02231943018332
:103A20007047000070B5002400220023058C4FF67B
:103A3000FF6635400584028C8388848B4FF68F7532
:103A40002C404FF6FC752C400D882C434FF6FF554B
:103A50002A400D894FF6FF7606EA05252A434D8850
:103A600006EA05252A43154DA84202D0144DA84266
:103A70001DD14FF2FF752A404D894FF6FF7606EAB9
:103A800005252A434FF6FF352A408D8806EA05258D
:103A90002A434EF6FF752B404DF6FF752B408D895E
:103AA00006EA05152B43CD8906EA05152B438380CD
:103AB0008483CD888587028470BD0000002C01407E
:103AC000003401400A460021818B4FF6F7731940FC
:103AD000114381837047000070B500220023002449
:103AE000058C4EF6FF7635400584038C8488828BE6
:103AF00048F6FF752A404FF6FF452A400D884FF6DD
:103B0000FF7606EA05252A434DF6FF752B400D8901
:103B100006EA05352B434D8806EA05352B430B4D48
:103B2000A84202D00A4DA84208D14BF6FF752C409E
:103B30008D894FF6FF7606EA85152C4384808283B3
:103B4000CD88A0F84050038470BD0000002C0140D7
:103B5000003401400A460021818B4FF2FF73194067
:103B60004FF6FF7303EA0223194381837047000075
:103B7000002202881D4B98420ED01D4B98420BD05C
:103B8000B0F1804F08D01B4B984205D01A4B984299
:103B900002D01A4B984204D14FF68F731A404B88CB
:103BA0001A43174B984207D0164B984204D04FF651
:103BB000FF431A40CB881A4302808B8883850B8889
:103BC00003850A4B98420BD0094B984208D00E4B04
:103BD000984205D00D4B984202D00D4B984201D12E
:103BE0000B7A03860123838270470000002C01407A
:103BF000003401400004004000080040000C004078
:103C0000001000400014004000400140004401400A
:103C10000048014030B589B005460C46012102201C
:103C2000FFF744F801211120FFF750F80121264841
:103C3000FCF7AEFD4FF47070ADF8200018208DF841
:103C4000230003208DF8220008A92048FCF715FD69
:103C5000ADF81850ADF814400020ADF81A00ADF8DA
:103C6000160005A91A48FFF783FF7020ADF804007D
:103C70000120ADF806000220ADF80C0001A914489F
:103C8000FFF71AFE08211248FFF762FE01A910484B
:103C9000FFF768FE08210E48FFF7B6FE01A90C48A1
:103CA000FFF7C0FE08210A48FFF70CFF01A90848EA
:103CB000FFF712FF08210648FFF74CFF01210448D7
:103CC000FFF7EDFD09B030BD000C1A0000100140F7
:103CD0000004004010B540F225511D4800F04AF89C
:103CE00010B31B4800F002F9C4B21A48008800F46F
:103CF0000040C8B91748008800F4804060B10A2C21
:103D000003D000201349088020E01248008840F4C6
:103D100000401049088019E00D2C06D10D4800889C
:103D200040F480400B49088010E00A480088C0F346
:103D30000D0009490C5407480088401C05490880BB
:103D400008460088C72801DD0020088010BD00005B
:103D500000380140100000205C00002021B1828961
:103D600042F40052828104E082894DF6FF731A40CA
:103D70008281704770B50246002400230025002090
:103D800040F66A16B14200D100BFC1F3421501F0FE
:103D90001F03012606FA03F3012D02D19689334051
:103DA00006E0022D02D1168A334001E0968A3340A4
:103DB0000C12012606FA04F41688344013B10CB133
:103DC000012000E0002070BDF0B50346002400266D
:103DD0000025002040F66A17B94200D100BF1846FE
:103DE000C1F3421401F01F06012707FA06F5012C62
:103DF00001D10C3004E0022C01D1103000E014306D
:103E00001AB107682F43076002E00768AF430760F5
:103E1000F0BD00002DE9F04786B005460E460024AF
:103E2000A24600BFA1460027B08900B100BF2F46BF
:103E30002C8A4CF6FF700440F08804432C82AC8935
:103E40004EF6F3100440B088318908437189084365
:103E50000443AC81AC8A4FF6FF400440B089044370
:103E6000AC8201A8FEF742FF1F48874202D1DDF86D
:103E700010A001E0DDF80CA0A88900F4004040B1DA
:103E80000AEBCA0000EB0A1031684900B0FBF1F8F8
:103E900007E00AEBCA0000EB0A1031688900B0FBAA
:103EA000F1F86420B8FBF0F004012009642101FB63
:103EB0001089A88900F4004040B1322000EBC9000D
:103EC000B0FBF1F000F00700044308E0322000EB03
:103ED00009106421B0FBF1F000F00F0004432C81C5
:103EE00006B0BDE8F0870000003801400146888830
:103EF000C0F30800704770B505460C46FCF7B6FDE8
:103F00005420FCF787FDFCF7F9FD2846FCF782FDFD
:103F1000FCF7F4FDC4F30720FCF77CFDFCF7EEFD95
:103F2000E0B2FCF777FDFCF7E9FDFCF7C5FD0A20E0
:103F300000F026F870BD00BF7047000010B56FF0AC
:103F40000400FFF747FC0A4800680A49B0FBF1F09B
:103F5000094908700846007800EB4001C1EBC01029
:103F60004FF6FF7101EAC0000449088010BD00004F
:103F70004800002000127A00080000200A000020FB
:103F80000146114A12884A434FF0E0235A61002249
:103F90009A611A46126942F001021A6100BF4FF09D
:103FA000E022106900F001021AB100F48032002A08
:103FB000F5D04FF0E022126922F001024FF0E02329
:103FC0001A6100229A6170470A0000200146114AD6
:103FD00012784A434FF0E0235A6100229A611A4650
:103FE000126942F001021A6100BF4FF0E02210692D
:103FF00000F001021AB100F48032002AF5D04FF02F
:10400000E022126922F001024FF0E0231A6100223F
:104010009A61704708000020FFF720FC00200A4941
:104020000880FEF72FFD09A201210846FFF7BCFB1F
:1040300009E0FCF7F7FB044624B1224605210120E4
:10404000FFF75AFB00BFF4E7300000204B65793DD5
:104050003000000002468A4201DD104670470846E3
:10406000FCE702468A4201DD084670471046FCE73D
:1040700010B586B00446012144F20400FEF726FE86
:104080004FF40070ADF8140003208DF816001820CE
:104090008DF8170005A91C48FCF7EFFA4FF4806073
:1040A000ADF8140004208DF8170005A91648FCF798
:1040B000E4FA25208DF8000003208DF801008DF82A
:1040C000020001208DF803006846FEF77FFD019491
:1040D0000020ADF80800ADF80A00ADF80C00ADF80E
:1040E00010000C20ADF80E0001A90848FFF792FE61
:1040F000012240F225510548FFF766FE01210348E1
:10410000FFF72CFE06B010BD00080140003801404A
:1041100090EA010F48BF81F0004100F1C880421AC7
:104120003CBF801A89184FEAD0524FF07F4C1CEAEE
:10413000410FA2EBD15318BF9CEA026F00F03B8005
:104140004FF0004C4CEA00204CEA012121FA03FC1C
:1041500010EB0C0C1ED202F1FF325FEA1C2040EB88
:10416000C25038BF70471CF07F0F4FEA400C18BF99
:10417000BCF17F4F38BF7047C3F12003994008BF9F
:1041800020F00100BCF17F4F38BF7047A0F1C04064
:1041900000F081B84FEA3C00000A40EBC25028BF53
:1041A0001CF0FF0F4FEA400CE6D018BFBCF17F4F68
:1041B00038BF7047EAE79CEA026F05D010EA5C0F4F
:1041C00008BF00F00040704710B500F01EF800BFB7
:1041D00064FBBE3E41000B0ED3F19E0208D950F4A1
:1041E00000034FEA032323FA02F048BF404270471E
:1041F00010B500F00AF800BF4992248000207047F3
:104200006FF0004282EA200070470EF1020E2EF09D
:10421000030E5EF8044B244204D44FEA4102B2F18B
:104220007F4F11D84FEA4003B3F17F4F0CD80ED126
:104230004FEAD07CB2F17F4F0CEB4C0C0CF1020C2E
:1042400008BF4CEBD17C04E04FF0080C01E04FEAD2
:10425000D17C0CEB4C0324FA03F404F00704B4F112
:10426000040C06D20EEB840CBDE810404CF0010C9F
:104270006047DFE80CF0070802024FF00040A0F5AD
:10428000800010BD0846420018BFD2F1807288BF7E
:1042900000F0004010BDFF2141EAD050C00570473A
:1042A00090EA010F48BF81F000413FF538AF421A54
:1042B00004D882F00042A0EB020011444FEAD05231
:1042C0004FF07F4C1CEA410FA2EBD15318BF9CEA80
:1042D000026F4AD04FF0004C4CEA00204CEA01211A
:1042E00021FA03FCB0EB0C0C0FD412F0FE0F36D009
:1042F0005FEA4C001DD5001240EBC25038BF70473A
:104300001CF03F0F18BF70470BE0A2F101025FEAFB
:104310001C2040EBC25038BF70471CF07F0F18BF05
:104320007047C3F12003994014BF401E20F00100E4
:10433000704780084FEA122308BF7047B0FA80FC2C
:10434000A2EB0C02CCF1280C60FA0CF093EA122FCD
:1043500004BF00EBC25070474FEAC3707047130AA6
:104360005FEADC1008BF7047F6E79CEA026F04D0F2
:1043700010EA5C0F08BF0020704710B5FFF745FF3B
:1043800040DFF63E81F00040704700000000000072
:10439000000000000000000000003F40000000009E
:1043A0000000000030004000300040000000090024
:1043B0000BC03D000BC03D00090018C024407FE049
:1043C000224031800000180024C01B000D803240C4
:1043D000018003801C4027401C80074000401000E3
:1043E000600000000000000000000000000000006D
:1043F0001F80204040200000402020401F800000FF
:104400000000090006001F800600090000000400EB
:1044100004003F8004000400000000100060000061
:104420000000000000000400040004000400040078
:10443000000000000040000000000000000000201C
:1044400001C006003800400000001F8020402040CE
:1044500020401F800000000010403FC000400000CE
:10446000000018C021402240244018400000108065
:104470002040244024401B80000002000D00110059
:104480003FC0014000003C80244024402440238061
:1044900000001F802440244034400380000030008E
:1044A000200027C03800200000001B80244024404A
:1044B00024401B8000001C0022C0224022401F809C
:1044C00000000000000008400000000000000000A4
:1044D00000000460000000000000000004000A006A
:1044E000110020804040090009000900090009006E
:1044F000000000004040208011000A000400180065
:10450000200023402400180000001F802040274086
:1045100029401F400000004007C039000F0001C0C3
:10452000004020403FC0244024401B8000001F80EA
:104530002040204020403080000020403FC02040EC
:1045400020401F80000020403FC024402E4030C04B
:10455000000020403FC024402E00300000000F002B
:104560001080204022403380020020403FC00400E1
:1045700004003FC02040204020403FC02040204059
:1045800000000060202020203FC0200020002040AC
:104590003FC024400B0030C0204020403FC020409E
:1045A0000040004000C03FC03C0003C03C003FC092
:1045B000000020403FC00C4023003FC020001F806F
:1045C0002040204020401F80000020403FC0244069
:1045D0002400180000001F802140214020E01FA07F
:1045E000000020403FC02440260019C0004018C0F1
:1045F00024402440224031800000300020403FC051
:1046000020403000000020003F80004000403F80FC
:10461000200020003E0001C00700380020003800C4
:1046200007C03C0007C038000000204039C0060029
:1046300039C0204000002000384007C0384020002A
:104640000000304021C02640384020C0000000005B
:1046500000007FE0402040200000000070000C00BF
:104660000380004000000000402040207FE0000068
:1046700000000000200040002000000000000010AA
:10468000001000100010001000100000000040009A
:10469000000000000000000002800540054003C04B
:1046A000004020003FC004400440038000000000A0
:1046B00003800440044006400000000003800440E2
:1046C00024403FC0004000000380054005400340F7
:1046D0000000000004401FC02440244020000000CF
:1046E00002E0055005500650042020403FC0044021
:1046F000040003C000400000044027C00040000048
:10470000000000100010041027E00000000020400E
:104710003FC00140070004C00440204020403FC08B
:1047200000400040000007C0040007C0040003C0B0
:104730000000044007C00440040003C00040000023
:1047400003800440044003800000041007F004507C
:10475000044003800000000003800440045007F080
:104760000010044007C002400400040000000000E4
:1047700006400540054004C00000000004001F8002
:10478000044000400000040007800040044007C0CF
:1047900000400400070004C0018006000400060079
:1047A00001C0070001C006000000044006C001006F
:1047B00006C0044000000410071004E00180060059
:1047C00004000000044005C0064004400000000052
:1047D000000004007BE0402000000000000000001A
:1047E000FFF000000000000040207BE0040000001B
:1047F0000000400080004000200020004000000039
:1048000000000000000000000000000000000000A8
:10481000000000001FCC000C0000000000000000A1
:104820000800300060000800300060000000022036
:1048300003FC1E20022003FC1E20022000000000BA
:104840000E1811043FFF10840C78000000000F00C8
:1048500010840F3800C007781884007800000078B2
:104860000F8410C411240E9800E40084000808008E
:104870006800700000000000000000000000000060
:104880000000000007E018182004400200000000AB
:1048900040022004181807E0000000000000024059
:1048A000024001800FF001800240024000000080C1
:1048B000008000800FF80080008000800000000170
:1048C000000D000E000000000000000000000000CD
:1048D0000080008000800080008000800080000058
:1048E000000C000C000000000000000000000000B0
:1048F000000600180060018006001800200000007B
:1049000007F0080810041004080807F00000000071
:10491000080408041FFC000400040000000000005C
:104920000E0C10141024104411840E0C0000000012
:104930000C1810041104110412880C7000000000FF
:1049400000E00320042408241FFC002400000000D1
:104950001F981084110411041088107000000000CA
:1049600007F0088811041104188800700000000086
:104970001C00100010FC13001C00100000000000C0
:104980000E3811441084108411440E3800000000C9
:104990000700088C10441044088807F0000000004D
:1049A00000000000030C030C0000000000000000E9
:1049B00000000001010600000000000000000000EF
:1049C00000800140022004100808100400000220AA
:1049D000022002200220022002200220000000000B
:1049E00010040808041002200140008000000000AC
:1049F0000E001200100C106C10800F00000003E07D
:104A00000C1813E4142417C4082807D0000000046D
:104A1000003C03C41C40074000E4001C00041004D8
:104A20001FFC1104110411040E880070000003E043
:104A30000C1810041004100410081C1000001004BE
:104A40001FFC100410041004080807F000001004F4
:104A50001FFC1104110417C41004081800001004EE
:104A60001FFC1104110017C010000800000003E033
:104A70000C181004100410441C78004000001004AE
:104A80001FFC10840080008010841FFC10040000B4
:104A9000100410041FFC10041004000000000003A8
:104AA0000001100110011FFE100010000000100492
:104AB0001FFC110403801464181C1004000010046F
:104AC0001FFC1004000400040004000C000010048B
:104AD0001FFC1F0000FC1F001FFC1004000010043E
:104AE0001FFC0C04030000E010181FFC100007F06E
:104AF0000808100410041004080807F0000010044F
:104B00001FFC10841080108010800F00000007F040
:104B1000081810241024101C080A07F200001004C2
:104B20001FFC1104110011C011300E0C0004000014
:104B30000E1C11041084108410441C38000018004E
:104B4000100010041FFC10041000180000001000DA
:104B50001FF810040004000410041FF810001000D7
:104B60001E0011E0001C007013801C0010001FC00C
:104B7000103C00E01F0000E0103C1FC000001004CB
:104B8000180C163401C001C01634180C10041000A3
:104B90001C00130400FC13041C0010000000080497
:104BA000101C1064108413041C0410180000000072
:104BB000000000007FFE40024002400200000000B2
:104BC00030000C0003800060001C000300000000A7
:104BD0004002400240027FFE000000000000000092
:104BE00000002000400040004000200000000001C4
:104BF00000010001000100010001000100010000AE
:104C00004000400020000000000000000000000004
:104C10000098012401440144014400FC00041000F8
:104C20001FFC0088010401040088007000000000DF
:104C300000700088010401040104008800000000E5
:104C4000007000880104010411081FFC000400002A
:104C500000F8014401440144014400C80000000080
:104C6000010401040FFC11041104110018000000DC
:104C700000D601290129012901C9010600001004FB
:104C80001FFC008401000100010400FC000400007E
:104C90000104190419FC00040004000000000000D5
:104CA000000300010101190119FE000000001004B9
:104CB0001FFC0024004001B4010C010400000000AE
:104CC000100410041FFC0004000400000000010494
:104CD00001FC0104010001FC0104010000FC0104CD
:104CE00001FC008401000100010400FC000400003C
:104CF00000F8010401040104010400F800000101AE
:104D000001FF00850104010400880070000000001C
:104D10000070008801040104010501FF0001010485
:104D2000010401FC00840104010001800000000076
:104D300000CC01240124012401240198000000007A
:104D40000100010007F80104010400000000010057
:104D500001F8000400040004010801FC0004010043
:104D600001800170000C001001600180010001F061
:104D7000010C003001C00030010C01F00100000006
:104D80000104018C00740170018C01040000010118
:104D900001810171000E0018016001800100000016
:104DA0000184010C013401440184010C0000000065
:104DB00000000000000001003EFC40024002000034
:104DC000000000000000FFFF0000000000000000E5
:104DD000400240023EFC0100000000000000000014
:104DE00060008000800040004000200020000000A3
:104DF000104E0008000000205C0000006C0100085C
:104E00006C4E00085C000020340700008801000898
:104E10000000000000000000000000000000000092
:104E20000000000000000000000000000000000082
:104E30000000000000000000000000000000000072
:104E40000000FFFF00000000010203040102030450
:104E5000060708090204060800A24A040000000030
:0C4E60000000000001020304060708091E
:0400000508000131BD
:00000001FF
